:020000040800F2
:100000000000032095050008051D0008071D0008D5
:10001000091D00080B1D00080D1D00080000000050
:10002000000000000000000000000000D16D00088A
:100030000F1D000800000000616E0008EB6600085C
:10004000E5050008E5050008E5050008E5050008E8
:10005000E5050008E5050008E5050008E5050008D8
:10006000E5050008E5050008111D0008E505000884
:10007000E5050008E5050008E5050008E5050008B8
:10008000E5050008E5050008E5050008E5050008A8
:10009000E5050008E5050008E5050008E505000898
:1000A000E5050008E5050008E5050008E505000888
:1000B000E5050008E5050008E5050008E505000878
:1000C000E5050008E5050008E5050008E505000868
:1000D000E5050008E5050008E5050008E505000858
:1000E000E5050008E5050008E5050008E505000848
:1000F000E5050008E5050008E5050008E505000838
:10010000E5050008E5050008E5050008E505000827
:10011000E5050008E5050008191D0008E5050008CB
:10012000E5050008E5050008E5050008E505000807
:10013000E5050008E5050008E5050008E5050008F7
:10014000E5050008E5050008E5050008E5050008E7
:10015000E5050008E5050008E5050008E5050008D7
:10016000E5050008E5050008E5050008E5050008C7
:10017000E5050008E5050008E505000800000000A9
:10018000E5050008E5050008E5050008E5050008A7
:10019000E5050008E5050008E5050008E505000897
:0C01A000251D0008E5050008311D0008C1
:1001B00010B5054C237833B9044B13B10448AFF3A1
:1001C00000800123237010BD6401002000000000A6
:1001D00020AF010808B5034B1BB103490348AFF337
:1001E000008008BD000000006801002020AF010869
:1001F00001F0FF01102A2BDB10F0070F08D010F8D8
:10020000013B013A8B422DD010F0070F42B3F6D1DB
:10021000F0B441EA012141EA014122F007047FF0F4
:1002200000070023F0E80256083C85EA010586EA4B
:10023000010685FA47F5A3FA87F586FA47F6A5FA87
:1002400087F68EB9EED1F0BC01F0FF0102F0070293
:1002500032B110F8013B013A83EA010313B1F8D13E
:100260000020704701387047002D06BF354603381F
:10027000073815F0010F07D1013015F4807F02BF58
:10028000013015F4C03F0130F0BC0138704700BFA9
:1002900053B94AB9002908BF00281CBF4FF0FF31ED
:1002A0004FF0FF3000F074B9ADF1080C6DE904CEE9
:1002B00000F006F8DDF804E0DDE9022304B0704741
:1002C0002DE9F047089D04468E46002B4DD18A4209
:1002D000944669D9B2FA82F252B101FA02F3C2F13C
:1002E000200120FA01F10CFA02FC41EA030E9440CD
:1002F0004FEA1C48210CBEFBF8F61FFA8CF708FBEE
:1003000016E341EA034306FB07F199420AD91CEBC5
:10031000030306F1FF3080F01F81994240F21C81F7
:10032000023E63445B1AA4B2B3FBF8F008FB10333F
:1003300044EA034400FB07F7A7420AD91CEB040474
:1003400000F1FF3380F00A81A74240F20781644444
:10035000023840EA0640E41B00261DB1D4400023C9
:10036000C5E900433146BDE8F0878B4209D9002D2D
:1003700000F0EF800026C5E9000130463146BDE8B7
:10038000F087B3FA83F6002E4AD18B4202D3824221
:1003900000F2F980841A61EB030301209E46002DD0
:1003A000E0D0C5E9004EDDE702B9FFDEB2FA82F225
:1003B000002A40F09280A1EB0C014FEA1C471FFA83
:1003C0008CFE0126200CB1FBF7F307FB131140EA6A
:1003D00001410EFB03F0884208D91CEB010103F137
:1003E000FF3802D2884200F2CB804346091AA4B2F9
:1003F000B1FBF7F007FB101144EA01440EFB00FECD
:10040000A64508D91CEB040400F1FF3102D2A64531
:1004100000F2BB800846A4EB0E0440EA03409CE7D0
:10042000C6F12007B34022FA07FC4CEA030C20FA7D
:1004300007F401FA06F31C43F9404FEA1C4900FA9D
:1004400006F3B1FBF9F8200C1FFA8CFE09FB18111A
:1004500040EA014108FB0EF0884202FA06F20BD98D
:100460001CEB010108F1FF3A80F08880884240F2DD
:100470008580A8F102086144091AA4B2B1FBF9F021
:1004800009FB101144EA014100FB0EFE8E4508D91C
:100490001CEB010100F1FF346CD28E456AD90238A1
:1004A000614440EA0840A0FB0294A1EB0E01A14286
:1004B000C846A64656D353D05DB1B3EB080261EBF4
:1004C0000E0101FA07F722FA06F3F1401F43C5E9CE
:1004D000007100263146BDE8F087C2F12003D84004
:1004E0000CFA02FC21FA03F3914001434FEA1C4746
:1004F0001FFA8CFEB3FBF7F007FB10360B0C43EA38
:10050000064300FB0EF69E4204FA02F408D91CEBE7
:10051000030300F1FF382FD29E422DD902386344E5
:100520009B1B89B2B3FBF7F607FB163341EA034185
:1005300006FB0EF38B4208D91CEB010106F1FF38D4
:1005400016D28B4214D9023E6144C91A46EA0046CB
:1005500038E72E46284605E70646E3E61846F8E65D
:100560004B45A9D2B9EB020864EB0C0E0138A3E7A6
:100570004646EAE7204694E74046D1E7D0467BE787
:10058000023B614432E7304609E76444023842E7FF
:10059000704700BFDFF834D0002103E00C4B5B58FC
:1005A000435004310B480C4B42189A42F6D30B4A85
:1005B00002E0002342F8043B094B9A42F9D303F0CE
:1005C0007FFD19F047FC00F00BFE70470000032090
:1005D0002480030800000020640100206401002042
:1005E00074280120FEE7704700F004BC00F072BCE4
:1005F000704710B50421044619F0B4FB204610BD25
:1006000038B50C4B0C4C18800C4B82201980636859
:10061000984740F6110398420AD1094D23682C608F
:10062000822098472B688220DB689847002038BDDD
:100630000120FCE7800100204C0000208201002006
:10064000840100204FF4A071F020FFF7D9BF000013
:10065000F7B52D4D2B6804461B698220984780B260
:100660002080002843D02B680DF106025B6901A9A8
:1006700082209847BDF80620A2F5B47292B20A2AE9
:1006800037D90B23B2FBF3F2204B1B889A4201D9D6
:10069000013B9AB2BDF8043040F6B8318B422AD8FB
:1006A000C3F571630E339BB20F21B3FBF1F318490D
:1006B00009888B4201D94B1E9BB2164E164D3068ED
:1006C0002F68834281B28CBF591AC91AB8B2BA4294
:1006D0008CBF101A801A89B280B201440529C8BFA4
:1006E00033603368C8BF2A6063802B68A38003B07F
:1006F000F0BD0022CEE7C3F56D6308339BB20E2B2D
:10070000D2D80023D9E700BF840100208201002055
:1007100080010020880100208C01002037B5684648
:100720000D461446FFF794FFBDF8000030B1BDF848
:1007300002302B60BDF804302360012003B030BDCF
:10074000704770477047012380F8741080F8753047
:100750007047002070470000034B4164003918BF08
:1007600001211970704700BFCF250120002070477C
:10077000836B0BB10846184770474FF6FF70704700
:10078000406803689B69184770477047704700F0DE
:1007900041BC08B503680446D3F880309847236805
:1007A00020469B6F984700F0EBF8236820461B6FAC
:1007B0009847292000F07EFF00F0E2F823682046E9
:1007C0001B6F9847F8E710B5044609F0F3F8236863
:1007D0002046D3F8AC30BDE81040184700F00CBC00
:1007E00000F010BC00F03CBC00F0E2BB00F03CBCF0
:1007F00000F044BC00F0E6BB08F044BB10B57C211F
:10080000044619F0AFFA204610BD90F877301BB1BE
:10081000406803681B6818471846704710B590F881
:10082000341090F874400C4B8C421A7809D03AB9C5
:100830000A4A0B491488088810800C8001221A701B
:1008400010BD002AFCD0054A05491488088810808C
:100850000C800022F3E700BFC8250120C425012039
:10086000C625012070B50D46194635B9094B0A4A0F
:100870000A4840F2D22119F0A3FAC0E90F52084BFE
:10088000003A18BF01221A700368BDE87040D3F81F
:100890008C30184790AF0108C8AF010816B00108A6
:1008A000CE25012008B5094B1B888B4203D8084B85
:1008B0001B88934205D9074B074A08489E2119F027
:1008C0007FFA074B1980074B1A8008BDC425012009
:1008D000C62501205BB00108BEB0010816B00108B2
:1008E000CA250120CC250120012108B50022084697
:1008F00005F089FF0A4B186028B90A4B0A4A2821DB
:100900000A4819F05DFA00220421012006F018F8C7
:10091000074B186018B9074B034A2C21F0E708BDB4
:1009200094010020DCB1010825B2010854B201088D
:1009300090010020A1B20108024B4FF0FF3118686E
:1009400005F0ABBF94010020014B186805F0D0BF43
:1009500094010020024B0021186805F09EBF00BFE3
:1009600094010020FFF7F0BF03480449006800230A
:100970001A4606F020B800BF9001002004000020B5
:1009800013B5084C00231A4601A9206806F043F865
:1009900020684FF0FF33002201A906F03CF802B0B6
:1009A00010BD00BF9001002003685B6C1847012058
:1009B000704703689B6A184782B0002301930D4B70
:1009C0001A6B42F400021A631A6B02F400020192DD
:1009D000019A1A6942F400021A611A6922F40002AB
:1009E0001A61054B054A1A61054B4FF080629A6007
:1009F00002B070470038024064150020450A000824
:100A000000E100E040F2EF3070470000054B03606A
:100A1000054B4FF08062C3F88820BFF34F8FBFF3C0
:100A20006F8F704740B4010800E100E010B5044644
:100A30004FF45A61FFF7EAFF204619F093F9204678
:100A400010BD0000024B1B68586803685B691847BB
:100A5000D025012070B5044625460A4B0C300026EF
:100A600060602672667245F8203B6022294609F0D4
:100A7000DFF804F55A63EE602435AB42FBD1204623
:100A800070BD00BF40B4010808B50B290BD8DFE8E2
:100A900001F01206100A0A0A0A08080808080120CC
:100AA00008BD0520FCE7054B054A0648662119F0FC
:100AB00087F90020F4E70220F2E700BFE3B2010863
:100AC000FEB2010848B3010808B50A2909D8DFE8D1
:100AD00001F010060E0808080806060606000120A8
:100AE00008BD054B054A0648872119F069F9002021
:100AF000F6E70220F4E700BFE3B2010893B3010870
:100B000048B301082DE9F8434F7F0C46394681462A
:100B1000FFF7BAFF94F81E80054641464846FFF7A6
:100B2000B3FF414606464846FFF7CEFFA18A628BD7
:100B3000424B521A1A649A61228B521A1A61E28A43
:100B4000586342EA01425A6420696268D863DA60F5
:100B5000216894F81CC080294FEA0C6226D010D876
:100B6000202945EA020461D040295FD004295DD0E4
:100B7000324B2A4342F400324745DA615AD0304AB8
:100B800040E0B1F5807F07D0B1F5007FF0D142F4AD
:100B9000003242F0090203E042F4003242F00A025D
:100BA000DA61E2681A625E6258612AE0A4682A4348
:100BB00042F40032211DD962DA6122785E62586106
:100BC00042B1012A21D01F4B1F4A204840F2111187
:100BD00019F0F6F8DA69618822F47F42013922F0CF
:100BE000100242EA0122DA610120144BDA6942F074
:100BF0002002DA61DA699206FCD410229A60002899
:100C0000BDD0134A1A60BDE8F8836288D969541EC2
:100C100021F47F4222F0100242EA0422BCF1FF00DC
:100C200042F0100218BF0120DA61DEE744F400341C
:100C3000DC61B8E740F20122E4E700BF00B0024007
:100C400001020100DEB30108F8B3010848B301084E
:100C50000102020070B50C46897FFFF735FFA68AB6
:100C6000E18A628B154B2569586341EA0641921B64
:100C70005964DD631A642668E168082E0DD19A6113
:100C80001A615862207F0E4A42EA0062DA610D4A18
:100C900019625D61DD601A6070BD0022D8611A6161
:100CA00048090A0A02F4784200F4FC600243C1F3E6
:100CB000C4010A439A63044AEDE700BF00B0024052
:100CC0000900010001020200010203000120704737
:100CD0000C2070470C2303FB0100083070470C23E5
:100CE00003FB010008307047012070474FF45A7031
:100CF00070474FF45A7303FB0100083070474FF4FC
:100D00005A7303FB01000830704701207047102020
:100D1000704700EB01100830704700EB01100830FD
:100D20007047084601F052B910B5034B0360044602
:100D300007F0F3FD204610BDF8B4010810B50446D5
:100D4000FFF7F2FF2046142119F00CF8204610BDE1
:100D500010B5034B0360044607F0DFFD204610BDCD
:100D6000C4B4010810B50446FFF7F2FF20464FF463
:100D70005C7118F0F7FF204610BD000010B5034B62
:100D80000360044607F0C9FD204610BD90B4010879
:100D900010B50446FFF7F2FF2046182118F0E2FFD5
:100DA000204610BD10B5084B0360044600F567707F
:100DB000FFF7BAFF04F12C00FFF7CAFF04F114009B
:100DC000FFF7DCFF204610BD2CB5010808B502482E
:100DD000FFF7E8FF08BD00BF9C01002010B50446E6
:100DE000FFF7E0FF20464FF4A26118F0BBFF20465A
:100DF00010BD00002DE9F34101F01AF8054601F09D
:100E00001BF80024014623462846224600940DF094
:100E10009DF9254B254A264D1A60204602F0C6FA58
:100E200024480DF0FBF82B78BFF35B8FDB0735D43C
:100E3000284618F099FF88B31F4C204B236004F517
:100E40006E7604F1140004F12C0804F567776060F5
:100E5000C4F80880E760266107F060FD184B636105
:100E6000404607F05BFD174BE362384607F056FD3E
:100E7000154BC4F89C3304F56C7002F013FB22464A
:100E800004F56C71304602F003FB304601F09EF829
:100E90000E4818F0B3FF284618F072FF0C4802B055
:100EA000BDE8F041FFF773BC2C260120CC140020D4
:100EB00098010020080000209C0100202CB50108AA
:100EC00090B40108C4B40108F8B40108CD0D0008BD
:100ED000501400200148FFF75CBC00BF50140020F4
:100EE00070B5234C234E244B244D23603046FFF72E
:100EF000B1FD284610F034FA214B2248DC60224C28
:100F000003600022F0204FF480712080C3E91212A8
:100F10001E4C1F492080C3E919121E4C1A864FF03F
:100F200080714FF4A07059670121C3E90422C3E91D
:100F30000622C3E90822C3E90A22C3E90E22C3E953
:100F40001022C3E91422C3E916221A6683F86C2022
:100F50001A67C3E9016583F8781020800E4C83F886
:100F6000341020800D4802700D4A1A6070BD00BF19
:100F7000AC060020B006002080AF0108D01400208D
:100F800050140020D0250120C4250120CA250120AD
:100F900001000001C6250120CC250120C825012023
:100FA0000CB101080148FFF731BD00BFB0060020B9
:100FB000034B902283F85A2383F85823704700BFCD
:100FC00000E100E0094A0A49D3680A48C3F30A036A
:100FD000013B9BB20B801169C1F30A010139018009
:100FE0001364536B43F0010353637047006801407F
:100FF0004C1500204A150020014BD3F8AC00704777
:1010000000680140024B0122C3F8AC105A627047DD
:101010000068014070B5044607F089FF23685D6EE3
:101020000AF0C8FC01462046A8472368054AD3F8C1
:1010300088502046AC460023BDE87040A2F516312A
:10104000604700BF005802D007F058BF90F84B30FF
:1010500013B1024B01221A7007F05CBF4815002043
:1010600007F016BF08F06FB8034B4FF080629A602C
:101070004FF080729A60704700E100E0084B4FF03B
:101080008062C3F88820BFF34F8FBFF36F8F4FF09C
:101090008072C3F88820BFF34F8FBFF36F8F704704
:1010A00000E100E010B5144C236823B3134B144A3D
:1010B0001B6C11888B4213D1124B198804F07CF8F9
:1010C000226892F86630013382F86630FFF74CFCF4
:1010D000206808F06FFCBDE810400020FFF730BB2F
:1010E00004F06AF8206803681B6A9847BDE810405E
:1010F0000020FFF726BB10BDD0250120006801406D
:101100004C1500204A15002007B5064BADF8060027
:101110001B68054801220DF1060104F099FD03B09A
:101120005DF804FB10000020D416002008B5044D23
:10113000044C2B6801205B6A237005F058FBF8E72C
:101140002C1700207417002030B595B01022002114
:101150000AA818F0C1FE1422002103A818F0BCFE52
:1011600000241D4B01941A6C42F080521A641B6CCF
:1011700003F080530193019B184B02941A6842F4C8
:1011800040421A601B6803F4404302930122029B11
:101190004FF48033CDE9082302254FF48003CDE9D5
:1011A0000E5308214FF4A873CDE9101308A80423A7
:1011B0001393129504F01EF80F23CDE903354FF475
:1011C000A0504FF48053CDE90603052103A80594F0
:1011D00004F0EEF915B030BD003802400070004058
:1011E0002DE980489BB002F079FFFFF7ADFF142294
:1011F00000210DA8002418F06FFEC54B00941A6B57
:10120000C448C54D42F020021A631A6B02F0200256
:101210000092009A01941A6B42F080021A631A6BD2
:1012200002F080020192019A02941A6B42F00402C9
:101230001A631A6B02F004020292029A03941A6B68
:1012400042F001021A631A6B02F001020392039A40
:1012500004941A6B42F002021A631A6B02F0020243
:101260000492049A05941A6B42F040021A631A6BB6
:1012700002F040020592059A06941A6B42F01002A1
:101280001A631A6B02F010020692069A07941A6B00
:1012900042F008021A631B6B03F00803079322460F
:1012A0000421079B03F09EF922469C484FF44051CD
:1012B00003F098F9012602274FF0040A95480F948D
:1012C0000DA9CDE90DA6109703F0A6F84FF44053F1
:1012D00092480DA94FF01008CDE90D36CDE90F4722
:1012E00003F09AF84FF488138D480F940DA9CDE9B7
:1012F0000D8303F091F8052122460A2002F040FFF9
:101300000A2002F06FFF8748874B036002F078FFE6
:10131000864A874B2C62C5E9002328464FF4804358
:10132000C5E90434C5E90244C5E9064403F048FBB5
:101330004146284603F084FD2146284603F09FFDE0
:101340007C487D4984624FF48273C0E900134FF4F6
:1013500000751823C0E906530A23784DC362C0E91B
:101360000244C0E90444C0E9084404F015FC744B8D
:10137000C5F810804FF0400CC5E900364FF4C0733B
:10138000C5E905C34FF40063C5E908344FF40053C1
:101390004FF00309AB620DA907232846CDE90E3AA9
:1013A00010934FF0080BC5E9024AEC61CDE91197A3
:1013B0000D97139704F0F0FA4FF6FF7209A928462B
:1013C000CDE90AB6089409960C9404F005FB304662
:1013D00002F0B0FE4FF6FF7209A92846CDE9097B5D
:1013E000CDE90B6404F0F8FA4FF6FF7209A928461C
:1013F000CDE9099BCDE90BA404F0EEFA4FF40C7390
:101400000893089B0C934FF6FF7209A92846CDE973
:1014100009AB0B9604F0E0FA40F26A51284604F05A
:10142000F9FA342221460DEB020018F055FD454D26
:10143000454BAC86C5E900340923C5E905361D23B3
:1014400040F20D1EC5E9073940F24313C5E909E32F
:1014500040F2171A40F247132846C5E90BA3C5E925
:1014600002442C6185F8364003F0AEFDFF21F022E6
:10147000CDE912144FF0050A4FF480614FF4A073C8
:10148000CDE90E24CDE9141ACDE916420DA9224664
:101490002846CDE910372D4D18930D94ADF86440D2
:1014A0008DF8664003F05BFE294B2B601B68984764
:1014B0002B68284DDB689847274BC5E90A47C5E9E3
:1014C0000C442846C5E90034C5E9027402F0A8FEC0
:1014D0003146284602F05CFF204D1C2221460EA812
:1014E00018F0FAFC4FF0804B1E23C5E900B30DA99C
:1014F00080232846AB61CDE90944C5E9024A2C6145
:10150000CDF834900F96CDF84480139628E000BFB4
:101510000038024000080240A4150020000C0240E0
:10152000000402405C15002000300240005C0040D6
:10153000A0860100D416002000500140A016002013
:10154000400100A0F8150020006801405815002057
:10155000140000206415002000B002402C17002069
:10156000CDF8548004F08AFF09A92846CDE9094442
:1015700004F0DAFFFFF738F8FFF735F805F0C2F8A6
:101580000A4A0B48214605F0E9F80A4B0A4A186056
:1015900021460A4805F0E2F8094B3C21186028462C
:1015A00004F0D8FD05F0C0F8FEE700BF50B5010813
:1015B0002D1100085015002074B50108ED05000834
:1015C00054150020704770477FB5094B8DF81720E0
:1015D0001B6802930DF117020123009201930A4642
:1015E0000146044803F094FA07B05DF804FB00BF1D
:1015F0000C000020A41500207FB500238DF81730C3
:10160000084B1B6802930A4601230DF11701009154
:1016100001930146044803F00BFB9DF8170007B047
:101620005DF804FB0C000020A41500201FB5084C39
:1016300024680092CDE901340A4601230146054899
:1016400003F0F6FA003818BF012004B010BD00BF47
:101650000C000020A415002002F06CBD08B506485F
:101660000022042102F0BEFFBDE80840024801222A
:10167000042102F0B7BF00BF0008024038B50B4D8F
:10168000044601220A484FF4005102F0ABFF002249
:101690000421284602F0A6FF2046FFF735FD284624
:1016A0000122BDE83840042102F09CBF000802403E
:1016B000000C024038B50B4D044600220A484FF496
:1016C000005102F08FFF00220421284602F08AFF19
:1016D0002046FFF719FD28460122BDE838400421C5
:1016E00002F080BF00080240000C0240F7B5144E23
:1016F000144F05460C4630460022042102F072FFCA
:1017000000224FF40051384602F06CFF2846FFF7E4
:10171000FBFC0D4B0D481B68224601A904F03AFC66
:10172000384601224FF40051019C02F05BFF304625
:101730000122042102F056FF204603B0F0BD00BF95
:1017400000080240000C024010000020D4160020C7
:1017500002F0F0BC0268034B9A4201D102F0D8BCFF
:10176000704700BF001000407047000082B00E4B71
:1017700000220092596C41F480415964596C01F483
:101780008041009100990192196C41F080511964D7
:101790001B6C03F080530193019B0F216FF001003C
:1017A00002B002F0EDBC00BF003802400268094BF5
:1017B0009A4282B00BD100230193074B1A6B42F47B
:1017C00080521A631B6B03F480530193019B02B098
:1017D000704700BF003002400038024007B50F4B91
:1017E00002689A4216D10022A3F5F0430192196BC8
:1017F00041F4000119631B6B03F4000301930521FD
:101800005A20019B02F0BCFC5A2003B05DF804EBA7
:1018100002F0E8BC03B05DF804FB00BF00B002407A
:101820002DE9F043044689B01422002103A818F0E2
:1018300053FB2268244B9A4243D1244C2448002570
:101840000095236B43F004032363236B03F004032D
:101850000093009B0195236B43F001032363236BEB
:1018600003F001030193019B4FF012094FF4007341
:101870004FF001080327042603A9CDE90339CDE978
:101880000587079602F0C8FD4FF48073114807964C
:1018900003A9CDE90339CDE9058702F0BDFD029525
:1018A000236C43F400032364236C03F400030293CA
:1018B000029B236A43F400032362236A23F4000398
:1018C000236209B0BDE8F083005C004000380240AC
:1018D0000008024000000240F0B599B0044614220E
:1018E000002107A818F0F8FA30220DEB02000021C1
:1018F00018F0F2FA22685E4B9A4240F0B780082353
:101900000C93C0231093042312930CA84FF40033BC
:10191000159303F017FF08B1FFF726FF554B564804
:10192000002400945A6C42F080625A645A6C02F0AF
:1019300080620092009A01941A6B42F020021A63AE
:101940001A6B02F020020192019A02941A6B42F083
:1019500001021A631A6B02F001020292029A0394C6
:101960001A6B42F002021A631A6B02F0020203922F
:10197000039A04941A6B42F040021A631A6B02F045
:1019800040020492049A05941A6B42F004021A630E
:101990001A6B02F004020592059A06941A6B42F043
:1019A00008021A631B6B03F00803069302250E2638
:1019B000069B0B964FF4806307A9CDE90735CDE967
:1019C000094502F029FD41F658032C480B9607A95A
:1019D000CDE907350927CDE9094502F01DFD0323AF
:1019E00027480B9707A9CDE90735CDE9094502F04E
:1019F00013FD4FF4706322480B9607A9CDE9073514
:101A0000CDE9094502F008FD4FF40C631D480B9623
:101A100007A9CDE90735CDE9094502F0FDFCC02352
:101A200019480B9607A9CDE90735CDE9094502F01C
:101A3000F3FC082315480B9607A9CDE90735CDE936
:101A4000094502F0E9FC4FF4A0530E480B9707A993
:101A5000CDE90735CDE9094502F0DEFC58202246E4
:101A6000052102F08DFB582002F0BCFB19B0F0BD3F
:101A700000680140003802400014024000000240AB
:101A8000000402400018024000080240000C02401E
:101A900010B5044688B01422002103A818F01CFADF
:101AA0002268144B9A4223D103F568430021019127
:101AB0005A6C114842F480125A645A6C02F4801233
:101AC0000192019A02911A6B42F020021A631B6B79
:101AD00003F020030293029B4FF460720223032160
:101AE000CDE903230523CDE9061303A902F094FCF5
:101AF00008B010BD005001400014024070B504460B
:101B000088B01422002103A818F0E6F92368B3F185
:101B1000804F34D103F50E33002400941A6C194819
:101B200042F001021A641A6C02F001020092009A5B
:101B300001941A6B42F001021A631A6B02F001025F
:101B40000192019A02941A6B42F002021A631B6B13
:101B500003F002030293029B02262023012503A91E
:101B6000CDE90336079502F057FC08230648079590
:101B700003A9CDE90336CDE9054402F04DFC08B0D8
:101B800070BD00BF00000240000402402DE9F0419A
:101B900086B0002303932B4B1C68002C4FD14FF0D1
:101BA0000108C3F80080284B00949A6B274842EA4A
:101BB00008029A639B6B03EA08030093022703263B
:101BC0000C25009B01A94FF63F03CDE90137CDE974
:101BD000046502F021FC1E48059501A9CDE90187A5
:101BE000CDE9034602F018FC48F233131948059575
:101BF00001A9CDE90137CDE9034602F00DFC4FF60E
:101C000083731548059501A9CDE90137CDE9034650
:101C100002F002FC4CF203731048059501A9CDE9CE
:101C20000137CDE9034602F0F7FB60230C48059528
:101C300001A9CDE90137CDE9034602F0EDFB06B07D
:101C4000BDE8F081781700200038024000140240FF
:101C5000000802400018024000100240000C024040
:101C60000004024070B588B000230293204B1A6C28
:101C700042F010021A641B6C03F010030293054635
:101C800001A903A8029B03F03FFD069B4BBB03F099
:101C90002BFD184E184B336040F2E733F360174BBF
:101CA000B0FBF3F3013B7360304600233361B36054
:101CB000B36104F0B7FB044680B9304604F010FA73
:101CC000044658B9362002F08DFA0F2D0DD8224661
:101CD0002946362002F054FA094B1D60204608B010
:101CE00070BD03F001FD4000D3E70124F6E700BF1B
:101CF000003802407C1700200010004040420F00D6
:101D00007C0000207047FEE7FEE7FEE7FEE7704735
:101D1000102002F06DBC0000014804F07ABA00BF48
:101D20007C170020014803F0BDB900BFF815002062
:101D3000014802F0A3BA00BF64150020102804D1A6
:101D4000034B1A7812B901221A7070470022FBE780
:101D5000751700200120704708B518F063F81623A6
:101D600003604FF0FF3008BD08B518F05BF816238C
:101D70000360FEE770B50D4614460E46731B9C4289
:101D800001DC204670BDAFF3008006F8010BF5E7DB
:101D900070B50D4614460E46731B9C4201DC20466E
:101DA00070BD16F8010BAFF30080F5E74FF0FF3080
:101DB00070474FF400534B6000207047012070477C
:101DC000002070470A4A116808B5034609B9094955
:101DD00011601068694603448B4206D918F022F856
:101DE0000C2303604FF0FF3008BD1360FCE700BF19
:101DF000C417002078280120704710B5042104463C
:101E000017F0B0FF204610BD012908B506D0022901
:101E100008D059B901F016FB006808BD01F012FBAB
:101E20004068FAE701F00EFB8068F6E70020F4E76F
:101E300000487047ACB501080220704713B5002474
:101E400051B1036801948DF8034001AA9C680DF11B
:101E50000303A04702B010BD0846FBE74089704766
:101E6000808970478088704783798088184480B261
:101E70007047C07900F07F007047C079C009704793
:101E8000704710B50821044617F06CFF204610BDBE
:101E90007047704700F596730868496803C3704738
:101EA000704770474160704770470000064BC0F8AC
:101EB00048310023C0F84C3100F5A073C0F844014C
:101EC000C0F83C31704700BF11270008012303729E
:101ED00070477047704710B4C26841685410034699
:101EE00001EB6200D20748BF0A599B685DF8044BBA
:101EF00048BFD358184743682BB183682BB9C068D3
:101F000000F001007047184670470120704710B577
:101F10000C21044617F026FF204610BD10B51021F5
:101F2000044617F01FFF204610BD10B54FF4AC71EA
:101F3000044617F017FF204610BD08B509F03AFD1A
:101F4000BDE808400AF0DAB810B50446D0F83C0104
:101F500058B10368DB68984738B1D4F83C0103688E
:101F60009B6898470023C4F83C3110BDF8B504467F
:101F700017460E4609F03EFD104B0025C4E9547685
:101F80000F4E1C60C4E952550E4B306823600E4B57
:101F9000C4E95035036801219B68C4E94E55984750
:101FA000284601F003FA336893F876200AB1D86C1A
:101FB00000B9986810F0BBFF2046F8BD1C26012030
:101FC000D025012038BE010820BE0108064BC0F80C
:101FD00048310023C0F84C3100F5A073C0F844012B
:101FE000C0F83C31704700BF11270008064BC0F80D
:101FF00048310023C0F84C3100F5A073C0F844010B
:10200000C0F83C31704700BFC5250008064BC0F83A
:1020100048310023C0F84C3100F5A073C0F84401EA
:10202000C0F83C31704700BF79240008064BC0F867
:1020300048310023C0F84C3100F5A073C0F84401CA
:10204000C0F83C31704700BF2D230008064BC0F894
:1020500048310023C0F84C3100F5A073C0F84401AA
:10206000C0F83C31704700BFE1210008064BC0F8C2
:1020700048310023C0F84C3100F5A073C0F844018A
:10208000C0F83C31704700BF9520000803685B6AC8
:10209000184700002DE9F14FD0E9545A0746A868C7
:1020A00003681B6A9847C32805D8454B454AA321B6
:1020B000454817F085FE686803681B6A98470F2833
:1020C00003D8424B3F4AA421F2E7E86803681B6A41
:1020D00098470B2803D83E4B3A4AA521E8E7DFF89A
:1020E000F89009F067FC09F06BFCD9F8000010B11A
:1020F0000368DB689847D9F8000010B103681B68D3
:102100009847DFF8D880D8F8000010B103685B6901
:102110009847D7F8380110B103685B689847D8F83A
:10212000000010B103681B689847D7F8380110B158
:1021300003689B689847E8680021FFF7A7FF4FF006
:10214000000B244B03600446C0F804B080F808B0CC
:10215000A868036859465B6A9847064601F006FD81
:102160006868036859465B6A98473146054601F03E
:10217000E3FCC9F80040C7F83851C8F80060E5B181
:102180002B1DCAF800303368C5F808A03046DB685C
:10219000F56398472B6828461B68984721463046C8
:1021A0000AF0ECFF236820461B69984723685B69A7
:1021B000204601B0BDE8F04F18472B46E1E700BFCD
:1021C000E4B5010872B6010876B70108BDB7010889
:1021D00060B8010884BE0108102601200C260120E9
:1021E0002DE9F14FD0E9545A0746A86803681B6AE5
:1021F0009847C32805D8454B454AA321454817F0C1
:10220000DFFD686803681B6A98470F2803D8424BB4
:102210003F4AA421F2E7E86803681B6A98470B2845
:1022200003D83E4B3A4AA521E8E7DFF8F89009F0D9
:10223000C1FB09F0C5FBD9F8000010B10368DB68E9
:102240009847D9F8000010B103681B689847DFF879
:10225000D880D8F8000010B103685B699847D7F8B8
:10226000380110B103685B689847D8F8000010B1D6
:1022700003681B689847D7F8380110B103689B685A
:102280009847E8680021FFF701FF4FF0000B244B4F
:1022900003600446C0F804B080F808B0A86803687A
:1022A00059465B6A9847064601F01AFC686803685D
:1022B00059465B6A98473146054601F0F7FBC9F875
:1022C0000040C7F83851C8F80060E5B12B1DCAF8C6
:1022D00000303368C5F808A03046DB68F5639847DE
:1022E0002B6828461B689847214630460AF046FF6F
:1022F000236820461B69984723685B69204601B024
:10230000BDE8F04F18472B46E1E700BFE4B50108F0
:1023100003B9010876B70108BDB7010860B8010824
:1023200084BE0108102601200C2601202DE9F14F62
:10233000D0E9545A0746A86803681B6A9847C3281F
:1023400005D8454B454AA321454817F039FD686833
:1023500003681B6A98470F2803D8424B3F4AA421C1
:10236000F2E7E86803681B6A98470B2803D83E4BDE
:102370003A4AA521E8E7DFF8F89009F01BFB09F0DD
:102380001FFBD9F8000010B10368DB689847D9F843
:10239000000010B103681B689847DFF8D880D8F8B0
:1023A000000010B103685B699847D7F8380110B195
:1023B00003685B689847D8F8000010B103681B6891
:1023C0009847D7F8380110B103689B689847E868C8
:1023D0000021FFF75BFE4FF0000B244B0360044627
:1023E000C0F804B080F808B0A868036859465B6A72
:1023F0009847064601F02EFB6868036859465B6AF9
:1024000098473146054601F00BFBC9F80040C7F874
:102410003851C8F80060E5B12B1DCAF800303368A8
:10242000C5F808A03046DB68F56398472B68284656
:102430001B689847214630460AF0A0FE23682046D4
:102440001B69984723685B69204601B0BDE8F04FDF
:1024500018472B46E1E700BFE4B5010807BA0108B9
:1024600076B70108BDB7010860B8010884BE01084D
:10247000102601200C2601202DE9F14FD0E9545AF5
:102480000746A86803681B6A9847C32805D8454BC8
:10249000454AA321454817F093FC686803681B6A06
:1024A00098470F2803D8424B3F4AA421F2E7E86837
:1024B00003681B6A98470B2803D83E4B3A4AA5216C
:1024C000E8E7DFF8F89009F075FA09F079FAD9F839
:1024D000000010B10368DB689847D9F8000010B11C
:1024E00003681B689847DFF8D880D8F8000010B15F
:1024F00003685B699847D7F8380110B103685B68D7
:102500009847D8F8000010B103681B689847D7F8BF
:10251000380110B103689B689847E8680021FFF70D
:10252000B5FD4FF0000B244B03600446C0F804B027
:1025300080F808B0A868036859465B6A9847064661
:1025400001F042FA6868036859465B6A9847314669
:10255000054601F01FFAC9F80040C7F83851C8F81D
:102560000060E5B12B1DCAF800303368C5F808A03B
:102570003046DB68F56398472B6828461B68984708
:10258000214630460AF0FAFD236820461B69984729
:1025900023685B69204601B0BDE8F04F18472B4621
:1025A000E1E700BFE4B501080BBB010876B70108FD
:1025B000BDB7010860B8010884BE010810260120DB
:1025C0000C2601202DE9F14FD0E9545A0746A8689E
:1025D00003681B6A9847C32805D8454B454AA32181
:1025E000454817F0EDFB686803681B6A98470F2899
:1025F00003D8424B3F4AA421F2E7E86803681B6A0C
:1026000098470B2803D83E4B3A4AA521E8E7DFF864
:10261000F89009F0CFF909F0D3F9D9F8000010B11A
:102620000368DB689847D9F8000010B103681B689D
:102630009847DFF8D880D8F8000010B103685B69CC
:102640009847D7F8380110B103685B689847D8F805
:10265000000010B103681B689847D7F8380110B123
:1026600003689B689847E8680021FFF70FFD4FF06B
:10267000000B244B03600446C0F804B080F808B097
:10268000A868036859465B6A9847064601F056F900
:102690006868036859465B6A98473146054601F009
:1026A00033F9C9F80040C7F83851C8F80060E5B1FF
:1026B0002B1DCAF800303368C5F808A03046DB6827
:1026C000F56398472B6828461B6898472146304693
:1026D0000AF054FD236820461B69984723685B690C
:1026E000204601B0BDE8F04F18472B46E1E700BF98
:1026F000E4B501080FBC010876B70108BDB70108B1
:1027000060B8010884BE0108102601200C260120B3
:102710002DE9F14FD0E9545A0746A86803681B6AAF
:102720009847B0F55A7F05D2444B454AA321454806
:1027300017F046FB686803681B6A98470F2803D8A0
:10274000414B3F4AA421F2E7E86803681B6A9847B7
:102750000B2803D83D4B3A4AA521E8E7DFF8F4906F
:1027600009F028F909F02CF9D9F8000010B1036834
:10277000DB689847D9F8000010B103681B689847D8
:10278000DFF8D480D8F8000010B103685B6998477F
:10279000D7F8380110B103685B689847D8F8000093
:1027A00010B103681B689847D7F8380110B1036867
:1027B0009B689847E8680021FFF768FC4FF0000B22
:1027C000234B03600446C0F804B080F808B0A86842
:1027D000036859465B6A9847064600F01FFF686821
:1027E000036859465B6A98473146054600F0FCFE8F
:1027F000C9F80040C7F83851C8F80060E5B12B1D92
:10280000CAF800303368C5F808A03046DB68F563C5
:1028100098472B6828461B689847214630460AF09F
:10282000ADFC236820461B69984723685B692046F6
:1028300001B0BDE8F04F18472B46E1E7E4B50108C9
:1028400013BD010876B70108BDB7010860B80108DB
:1028500084BE0108102601200C260120006A704762
:10286000406A704770478B8880690A68DB0A50F8B5
:1028700023001044704710B5C2B1137BB3B1547B31
:10288000D27A240204F4E0641443C26998B202EBE1
:10289000840213888B4202D192F9020010BD05D840
:1028A000013880B204320028F3D1F7E70020F5E7C1
:1028B00010B52821044617F055FA204610BD000037
:1028C00030B589B00446BDF850500695BDF84C505F
:1028D00005959DF8405004959DF83C5003959DF852
:1028E000385002959DF8345001959DF83050009570
:1028F0000AF0A4F8064B2360119BA361129BE361CD
:10290000159B2362169B6362204609B030BD00BF51
:10291000A8BE01080020704781807047C1807047C1
:102920000181704741817047704770477047704719
:10293000704710B4C4880368121B84885B6D091B40
:1029400012B25DF8044B09B218474FF6FF7383814A
:102950004FF0FF3303621368C36110607047704724
:10296000704770477047704790F825201AB190F86B
:10297000242002B1186070477047704710B54FF4BB
:102980005A71044617F0EEF9204610BD70B5036881
:1029900004461B6B154698472368294620465B6B07
:1029A000BDE87040184770B504461D46BDF910607B
:1029B000FFF7ECFF2368294620469B6B9847236866
:1029C00031462046DB6BBDE870401847094A02607B
:1029D0004FF4807100228184FF21C0E90122C0E907
:1029E0000322C0E90522C0E9072280F8261082628E
:1029F000704700BF2CC701081B4B73B51B88018FA4
:102A00008B4206462BD9194B1B682BB9184B194A18
:102A100019486C2117F0D4F913F81120174B1B68D3
:102A200053F82250164B186800F0FCFC2B680190FC
:102A300001469B6A284698472B6801991B6C0446FF
:102A4000284698472B6801995B6A14FB00F42846D6
:102A50009847E4B2044486F8454002B070BD0023B4
:102A600080F84530F9E700BF242601202026012008
:102A7000F8BE01083ABF010875BF010828260120E9
:102A80002C2601202DE9F04F2DED088B044685B052
:102A90000AF0C8F922460025D04BE56342F8403BD6
:102AA000104608EE102AFFF791FF04F16C0304F1C1
:102AB000980918460BEE903A04F1E008FFF786FFFC
:102AC000484607F07FFA404607F07CFA04F5947315
:102AD000184608EE903A07F075FA04F5B8731846F0
:102AE00009EE103A07F06EFA04F5DC73184609EEA9
:102AF000903A07F067FA04F5007318460AEE103AA8
:102B000007F060FA04F5127318460AEE903A07F0DF
:102B100059FA04F5247304F5367718460BEE103A8B
:102B200004F5487607F04EFA384607F04BFA4FF4B2
:102B3000A07B304607F046FA4FF07F4A18EE100AA5
:102B4000CDF800B02A462946F023FFF72CFFF023EA
:102B50001BEE900AC4F868A0CDF800B02A462946BA
:102B6000FFF721FFC4F894A02A4648460521FFF745
:102B70000DFF4FF0010A03AA02A94846ADF808A0CC
:102B8000ADF80C5007F0A5F809234FF0FF3BA4F86F
:102B9000D0304846FFF730FF2A464046C4E935BBEF
:102BA0000521FFF7F3FE03AA02A984F80551404668
:102BB000ADF80850ADF80C5007F08BF80423A4F8DA
:102BC00018314046FFF718FF18EE900AC4E947BBDA
:102BD0003C220521FFF7DAFE03AA02A918EE900AAB
:102BE000ADF808A0ADF80C5007F073F80823A4F86E
:102BF000603118EE900AFFF7FFFE19EE100AC4E9E3
:102C000059BB3C220521FFF7C1FE03AA02A919EE18
:102C1000100A84F89551ADF80850ADF80C5007F043
:102C200058F80323A4F8A83119EE100AFFF7E4FEC0
:102C300019EE900AC4E96BBB78220521FFF7A6FEC6
:102C400003AA02A919EE900AADF808A0ADF80C503D
:102C500007F03FF80723A4F8F03119EE900AFFF7C8
:102C6000CBFE1AEE100AC4E97DBB78220521FFF7DE
:102C70008DFE03AA02A91AEE100A84F82552ADF8B7
:102C80000850ADF80C5007F024F80223A4F83832AD
:102C90001AEE100AFFF7B0FE1AEE900AC4E98FBBD5
:102CA000B4220521FFF772FE03AA02A91AEE900AC8
:102CB000ADF808A0ADF80C5007F00BF80623A4F807
:102CC00080321AEE900AFFF797FE1BEE100AC4E955
:102CD000A1BBB4220521FFF759FE03AA02A91BEEEE
:102CE000100A84F8B552ADF80850ADF80C5006F053
:102CF000F0FF1BEE100AA4F8C8A2FFF77DFE3846CD
:102D0000C4E9B3BBF0220521FFF740FE03AA02A9E4
:102D1000ADF808A038464FF0050AADF80C5006F0A3
:102D2000D8FF3846A4F810A3FFF766FE5146304698
:102D3000C4E9C5BBF022FFF729FE03AA02A984F863
:102D400045533046ADF80850ADF80C5006F0C1FFC1
:102D5000A4F858533046251DFFF74EFE18EE101A02
:102D60002846C4E9D7BB05F0EDFD1BEE901A2846B6
:102D700005F0E8FD4946284605F0E4FD41462846B1
:102D800005F0E0FD18EE901A284605F0DBFD19EE7F
:102D9000101A284605F0D6FD19EE901A284605F0BF
:102DA000D1FD1AEE101A284605F0CCFD1AEE901A45
:102DB000284605F0C7FD1BEE101A284605F0C2FD97
:102DC0003946284605F0BEFD2846314605F0BAFDD5
:102DD000204605B0BDEC088BBDE8F08FC4BF0108EC
:102DE0007047704710B5C421044616F0BBFF20465B
:102DF00010BD00002DE9F043044685B025460AF0D9
:102E000011F8234B0022E26345F8403B04F16C07C4
:102E10002846FFF7DBFD04F198063846FFF7D6FD9C
:102E20003046FFF7D3FD4FF4A07900221146284623
:102E3000CDF80090F023FFF7B6FD4FF07F48002259
:102E400011463846C4F86880CDF80090F023FFF7AB
:102E5000AAFD4FF0FF330022C4F89430322311460C
:102E600000933046FFF79FFD201D2946C4F8C0801F
:102E7000039005F067FD0398394605F063FD03985C
:102E8000314605F05FFD204605B0BDE8F08300BF88
:102E9000F8BF01087047704710B5C421044616F00A
:102EA00061FF204610BD00002DE9F043044685B0C7
:102EB000254609F0B7FF234B0022E26345F8403B6B
:102EC00004F16C072846FFF781FD04F198063846A7
:102ED000FFF77CFD3046FFF779FD4FF4A079002223
:102EE00011462846CDF80090F023FFF75CFD4FF027
:102EF0007F48002211463846C4F86880CDF800901B
:102F0000F023FFF750FD4FF0FF33C4F89430322325
:102F1000009300223046BE21FFF745FD201D2946C3
:102F2000C4F8C080039005F00DFD0398394605F004
:102F300009FD0398314605F005FD204605B0BDE8C2
:102F4000F08300BF2CC001087047704710B5C42142
:102F5000044616F007FF204610BD00002DE9F0439F
:102F6000044685B0254609F05DFF234B0022E2634D
:102F700045F8403B04F16C072846FFF727FD04F1B4
:102F800098063846FFF722FD3046FFF71FFD4FF445
:102F9000A079002211462846CDF80090F023FFF7D3
:102FA00002FD4FF07F48002211463846C4F8688081
:102FB000CDF80090F023FFF7F6FC4FF0FF33C4F894
:102FC0009430322300934FF487723046BE21FFF7CE
:102FD000EAFC201D2946C4F8C080039005F0B2FC2D
:102FE0000398394605F0AEFC0398314605F0AAFC7B
:102FF000204605B0BDE8F08360C001087047704707
:1030000010B5C421044616F0ADFE204610BD0000E8
:103010002DE9F043044685B0254609F003FF234B14
:103020000021E16345F8403B04F16C072846FFF7B7
:10303000CDFC04F198063846FFF7C8FC3046FFF790
:10304000C5FC4FF4A07900210A462846CDF800902F
:10305000F023FFF7A8FC4FF07F4800210A463846CE
:10306000C4F86880CDF80090F023FFF79CFC4FF087
:10307000FF33C4F89430322300934FF48772304604
:103080000021FFF790FC201D2946C4F8C080039062
:1030900005F058FC0398394605F054FC0398314676
:1030A00005F050FC204605B0BDE8F08394C001084F
:1030B0007047704710B5C421044616F053FE2046F1
:1030C00010BD00002DE9F043044685B0254609F007
:1030D000A9FE234B0022E26345F8403B04F16C0754
:1030E0002846FFF773FC04F198063846FFF76EFC9C
:1030F0003046FFF76BFC4FF4A079002211462846BA
:10310000CDF80090F023FFF74EFC4FF07F480022EF
:1031100011463846C4F86880CDF80090F023FFF7D8
:1031200042FC4FF0FF33C4F89430322300938722DF
:1031300030465F21FFF737FC201D2946C4F8C080C8
:10314000039005F0FFFB0398394605F0FBFB03985D
:10315000314605F0F7FB204605B0BDE8F08300BF1F
:10316000C8C001087047000030B5154D2C78BFF37A
:103170005B8F14F001048DB01ED1284616F0F4FDCB
:10318000D0B13F2307930F4B06930F4B0F491048C5
:1031900008940122CDE904430423CDE90132CDE9AD
:1031A00009440A2303940094FFF78AFB094816F0A8
:1031B00025FE284616F0E4FD05480DB030BD00BFE1
:1031C000C817002048D0010860D00108B8CF010816
:1031D000CC170020653100087047000030B5154D50
:1031E0002C78BFF35B8F14F001048DB01FD12846FB
:1031F00016F0BAFDD8B13F2307930F4B06930F4B40
:1032000005930123CDE9034302930423CDE9004351
:103210000B490C48089414230822CDE90944FFF710
:103220004FFB094816F0EAFD284616F0A9FD0548AF
:103230000DB030BDF41700204CD0010864D0010857
:10324000C8CF0108F8170020D931000870470000E6
:1032500030B5154D2C78BFF35B8F14F001048DB0A1
:103260001ED1284616F080FDD0B13F2307930F4BA7
:1032700006930F4B0F49104808940122CDE90443EF
:103280000423CDE90132CDE90944282303940094B5
:10329000FFF716FB094816F0B1FD284616F070FD41
:1032A00005480DB030BD00BF201800205CD00108DB
:1032B00068D0010838D00108241800204D320008D9
:1032C00000207047002070470EB403B503AB002107
:1032D00053F8042B019309F0E3F902B05DF804EB15
:1032E00003B070470CB407B504AB53F8042B01933B
:1032F00009F0D6F903B05DF804EB02B070470000A6
:10330000436C10B5044673B3038F2BB9184B194A9D
:10331000C021194816F054FDC38E00EB43035B8CAB
:103320000BB30AF040FC238F012B03D8134B144A34
:10333000C521EEE7E28E531C9BB2092B194688BFCC
:10334000A3F10A0104EB410140F63F10498C814290
:1033500009D10A2B04EB420228BF002304EB4303EC
:10336000508C588451842046BDE810400AF01EBBA2
:10337000F4C00108FDC00108A8C10108F2C101089C
:1033800000C201080AF0D9BA10B586B002AC84E8D0
:1033900006001A460AAB05930193099B0093214648
:1033A000089B07F03DFE06B010BD000038B518BB05
:1033B000124B13481B681349B3B11A689C681A442E
:1033C00002605A681A440A601C440F4B00221A809B
:1033D00000F038F8054600F033F80C4B1C600C4B3D
:1033E0001D600C4B188007E00B4B03600B4B0B6010
:1033F0000B4B1C68002CE8D138BD00BF4C180020D6
:1034000050180020541800205818002020260120B1
:10341000282601202426012094D001086CD0010820
:10342000BCD00108044B1B6853F82100034B1B68F8
:1034300003EB4000704700BF5418002050180020D4
:103440000A207047004870475C18002010B5FFF74D
:10345000C5FE044C2060FFF7FBFE6060FFF784FEB2
:10346000A06010BD5C180020704710B54FF4AC711F
:10347000044616F077FC204610BD10B50446D0F87F
:10348000540100F013F82046BDE8104008F040B9A0
:1034900010B50446FEF76AFD014B2360204610BDBF
:1034A000DCC20108002202600271704770B5174D3E
:1034B0002B78044683B9006803689B689847144BCF
:1034C0001A78012A20D100221A702068297803680E
:1034D000BDE87040DB691847012B03D10068036821
:1034E000DB68EBE7022B03D1006803681B69E5E7A3
:1034F000032B03D1006803685B69DFE7042BDED18F
:10350000006803689B69D9E770BD00BF741700208D
:103510007517002001717047704704387047704775
:1035200010B51021044616F01DFC204610BDA0F178
:103530000400F5E780680121FFF7ECBFC06800F0E8
:1035400077B8A0F10400FFF7F9BFC06800F0B1B888
:10355000A0F10400FFF7F9BFC06800F0EBB8A0F1DC
:103560000400FFF7F9BFC06800F025B9A0F104001E
:10357000FFF7F9BFC06800F05FB9A0F10400FFF7E2
:10358000F9BFC068036810B55B690C4698472CB951
:1035900008F010FABDE81040FEF728BD012C05D157
:1035A00008F008FABDE81040FEF730BD022C05D146
:1035B00008F000FABDE81040FEF738BD032C05D135
:1035C00008F0F8F9BDE81040FEF740BD042C05D125
:1035D00008F0F0F9BDE81040FEF748BD10BDA0F1BD
:1035E0000400FFF7CEBF000010B500228260044A3D
:1035F000C16002F1080438320460426010BD00BFAF
:1036000020C3010870477047FFF7B7B910B54FF4F2
:103610005A71044616F0A6FB204610BD10B50446AC
:10362000FFF730FA014B2360204610BD80C301082C
:103630000123002210B5044680F8053180F8952159
:1036400080F8252280F8B52280F8452380F8BD2037
:1036500080F84D3180F8DD3180F86D3280F8FD3230
:10366000E03009F03EF904F1980009F03AF904F568
:10367000B87009F036F904F5947009F032F904F5E0
:10368000007009F02EF904F5DC7009F02AF904F550
:10369000247009F026F904F5127009F022F904F5F6
:1036A000487009F01EF904F53670BDE8104009F0C5
:1036B00018B90022012310B5044680F8052180F8CE
:1036C000953180F8252280F8B52280F8452380F8CE
:1036D000BD3080F84D2180F8DD3180F86D3280F802
:1036E000FD32E03009F0FDF804F1980009F0F9F836
:1036F00004F5B87009F0F5F804F5947009F0F1F8E4
:1037000004F5007009F0EDF804F5DC7009F0E9F853
:1037100004F5247009F0E5F804F5127009F0E1F8F9
:1037200004F5487009F0DDF804F53670BDE8104086
:1037300009F0D7B80022012310B5044680F805210E
:1037400080F8952180F8253280F8B52280F845234D
:1037500080F8BD3080F84D3180F8DD2180F86D3281
:1037600080F8FD32E03009F0BCF804F1980009F06F
:10377000B8F804F5B87009F0B4F804F5947009F0DD
:10378000B0F804F5007009F0ACF804F5DC7009F04D
:10379000A8F804F5247009F0A4F804F5127009F0F3
:1037A000A0F804F5487009F09CF804F53670BDE8FF
:1037B000104009F096B80022012310B5044680F8A5
:1037C000052180F8952180F8252280F8B53280F80F
:1037D000452380F8BD3080F84D3180F8DD3180F828
:1037E0006D2280F8FD32E03009F07BF804F198009A
:1037F00009F077F804F5B87009F073F804F59470DF
:1038000009F06FF804F5007009F06BF804F5DC704E
:1038100009F067F804F5247009F063F804F51270F4
:1038200009F05FF804F5487009F05BF804F53670AC
:10383000BDE8104009F055B80023012210B5044638
:1038400080F8053180F8953180F8253280F8B5325E
:1038500080F8452380F8BD2080F84D2180F8DD21D7
:1038600080F86D2280F8FD32E03009F03AF804F17A
:10387000980009F036F804F5B87009F032F804F54C
:10388000947009F02EF804F5007009F02AF804F598
:10389000DC7009F026F804F5247009F022F804F52C
:1038A000127009F01EF804F5487009F01AF804F5D2
:1038B0003670BDE8104009F014B870477047704783
:1038C00070477047704704387047704710B5102133
:1038D000044616F047FA204610BDA0F10400F5E7B3
:1038E00080680221FFF716BE08B5C06803685B69EF
:1038F000984708F05FF8BDE80840FEF767BBA0F105
:103900000400FFF7F1BF000010B500228260044AF6
:10391000C16002F1080424320460426010BD00BF9F
:10392000ACC3010870477047FFF75BBA10B5C421FC
:10393000044616F017FA204610BD000010B50446E4
:10394000FFF758FA014B2360204610BDF8C3010869
:10395000704704387047704710B51021044616F0C0
:1039600001FA204610BDA0F10400F5E780680321AC
:10397000FFF7D0BD08B5C06803685B69984708F0D9
:1039800019F8BDE80840FEF721BBA0F10400FFF7DD
:10399000F1BF000010B500228260044AC16002F14C
:1039A000080424320460426010BD00BF24C4010832
:1039B00070477047FFF76FBA10B5C421044616F080
:1039C000D1F9204610BD000010B50446FFF76CFA8F
:1039D000014B2360204610BD70C4010870470438B5
:1039E0007047704710B51021044616F0BBF9204609
:1039F00010BDA0F10400F5E780680421FFF78ABD3F
:103A000008B5C06803685B69984707F0D3FFBDE855
:103A10000840FEF7DBBAA0F10400FFF7F1BF000099
:103A200010B500228260044AC16002F10804243209
:103A30000460426010BD00BF9CC40108704770471D
:103A4000FFF783BA10B5C421044616F08BF920465F
:103A500010BD000010B50446FFF780FA014B23604B
:103A6000204610BDE8C4010870470438704770470D
:103A700010B51021044616F075F9204610BDA0F1CE
:103A80000400F5E780680521FFF744BD08B5C0686C
:103A900003685B69984707F08DFFBDE80840FEF7B3
:103AA00095BAA0F10400FFF7F1BF000010B50022A5
:103AB0008260044AC16002F108042432046042605A
:103AC00010BD00BF14C5010870477047FFF797BAD3
:103AD00010B5C421044616F045F9204610BD00007B
:103AE00010B50446FFF794FA014B2360204610BD41
:103AF00060C50108704704387047704710B5102141
:103B0000044616F02FF9204610BDA0F10400F5E799
:103B100080680621FFF7FEBC08B5C06803685B69D2
:103B2000984707F047FFBDE80840FEF74FBAA0F1FD
:103B30000400FFF7F1BF000010B500228260044AC4
:103B4000C16002F1080424320460426010BD00BF6D
:103B50008CC5010870477047FFF7ABBA10B5C42198
:103B6000044616F0FFF8204610BD000010B50446CC
:103B7000FFF7A8FA014B2360204610BDD8C5010805
:103B8000F02070474FF4A07070472920FDF792BDD8
:103B90002820FDF78FBD08B5FDF760FDCA20FDF7B1
:103BA00089FDC320FDF76AFD0820FDF767FD502061
:103BB000FDF764FDCF20FDF77DFD0020FDF75EFDE4
:103BC000C120FDF75BFD3020FDF758FDED20FDF72E
:103BD00071FD6420FDF752FD0320FDF74FFD12201B
:103BE000FDF74CFD8120FDF749FDE820FDF762FD62
:103BF0008520FDF743FD0020FDF740FD7820FDF70F
:103C00003DFDCB20FDF756FD3920FDF737FD2C207B
:103C1000FDF734FD0020FDF731FD3420FDF72EFDCA
:103C20000220FDF72BFDF720FDF744FD2020FDF7D6
:103C300025FDEA20FDF73EFD0020FDF71FFD0020D9
:103C4000FDF71CFDB120FDF735FD0020FDF716FD49
:103C50001B20FDF713FDB620FDF72CFD0A20FDF714
:103C60000DFDA220FDF70AFDC020FDF723FD102069
:103C7000FDF704FDC120FDF71DFD1020FDF7FEFC42
:103C8000C520FDF717FD4520FDF7F8FC1520FDF7D1
:103C9000F5FCC720FDF70EFD9020FDF7EFFC362068
:103CA000FDF708FDC820FDF7E9FCF220FDF702FD55
:103CB0000020FDF7E3FCB020FDF7FCFCC220FDF77F
:103CC000DDFCB620FDF7F6FC0A20FDF7D7FCA720A7
:103CD000FDF7D4FC2720FDF7D1FC0420FDF7CEFC36
:103CE0002A20FDF7E7FC0020FDF7C8FC0020FDF7C7
:103CF000C5FC0020FDF7C2FCEF20FDF7BFFC2B2028
:103D0000FDF7D8FC0020FDF7B9FC0020FDF7B6FC5C
:103D10000120FDF7B3FC3F20FDF7B0FCF620FDF7D6
:103D2000C9FC0120FDF7AAFC0020FDF7A7FC062036
:103D3000FDF7A4FC2C20FDF7BDFCC820FDF708FD15
:103D40002620FDF7B7FC0120FDF798FCE020FDF7E9
:103D5000B1FC0F20FDF792FC2920FDF78FFC2420F9
:103D6000FDF78CFC0C20FDF789FC0E20FDF786FC8E
:103D70000920FDF783FC4E20FDF780FC7820FDF73D
:103D80007DFC3C20FDF77AFC0920FDF777FC132031
:103D9000FDF774FC0520FDF771FC1720FDF76EFCA4
:103DA0001120FDF76BFC0020FDF768FCE120FDF71A
:103DB00081FC0020FDF762FC1620FDF75FFC1B2054
:103DC000FDF75CFC0420FDF759FC1120FDF756FCC3
:103DD0000720FDF753FC3120FDF750FC3320FDF7A1
:103DE0004DFC4220FDF74AFC0520FDF747FC0C2066
:103DF000FDF744FC0A20FDF741FC2820FDF73EFCBE
:103E00002F20FDF73BFC0F20FDF738FC1120FDF7BC
:103E100051FCC820FDF79CFC2920FDF74BFCBDE8B8
:103E200008402C20FDF746BC08B5FDF717FC032120
:103E3000D320FDF75BFC80B208BD10B5C4B20222EE
:103E400003212046FDF7C0FB0A20FDF705FC2046B4
:103E500000220321FDF7B8FBBDE810400220FDF76A
:103E6000FBBB38B50446E4B2FDF7ACFB00212046AD
:103E7000FDF7C2FB012105462046FDF7BDFB40EAE8
:103E8000052080B238BD10B5C4B240212046FDF7F0
:103E9000B3FB030607D54C212046FDF7ADFB0038E8
:103EA00018BF012010BD01224B212046FDF78CFBDD
:103EB000204600224B21FDF787FB0020F2E773B577
:103EC0000423C4B20E461546D7210DEB030220464B
:103ED000FDF7ACFB019B1BBA1A0DC3F30B23328019
:103EE00020462B8001224B21FDF76EFB00224B2147
:103EF0002046FDF769FB02B070BD000010B50A4B0B
:103F00001A78904204460DD0597888420AD00AB1F6
:103F100041B901229C54FDF755FB2046BDE81040F5
:103F2000FFF78BBF10BD00BF6818002010B5C4B2EA
:103F300009212046FDF760FB40F00100C2B20921D3
:103F40002046BDE81040FDF73FBB10B5C4B20921C3
:103F50002046FDF751FB092100F0FE022046BDE896
:103F60001040FDF731BB38B5C4B20D4620460A21DA
:103F7000FDF742FB2843C2B20A212046BDE8384083
:103F8000FDF722BB07B50190FDF71DFB01981F212E
:103F9000FFF7E9FF019803B05DF804EBFFF7C6BF38
:103FA00038B5C4B20D4620460A21FDF725FB20EAAC
:103FB0000500C2B20A212046BDE83840FDF704BB27
:103FC00010B50446FFF7C1FF20461F21BDE8104091
:103FD000FFF7E6BF10B5C0B20C460B21FDF70CFB96
:103FE000204010BD1F21FFF7F5BF0A46C0B20B21CC
:103FF000FDF7EABA1F21FFF7F8BF38B5C4B20D4686
:1040000020461721FDF7F8FA20EA0500C2B2172171
:104010002046BDE83840FDF7D7BA70B5C4B20646B1
:1040200004212046FDF7E8FA042100F0FB020546D2
:104030002046FDF7C9FA3046F021FFF7DEFF05F014
:10404000F80220460421FDF7BFFA4922202120462C
:10405000FDF7BAFA0220FDF7FFFA204601222121DE
:10406000FDF7B2FA20469A224121FDF7ADFA20462B
:1040700001224A21FDF7A8FA204601224B21FDF733
:10408000A3FA204600224B21FDF79EFA204601228A
:104090005621FDF799FA204601225821FDF794FA9E
:1040A000204601224021FDF78FFA2046FF220B21F6
:1040B000FDF78AFABDE870400220FDF7CDBA000096
:1040C000054BD3F8882042F47002C3F888204FF0E3
:1040D00000629A60704700BF00ED00E008B50B4B2E
:1040E0001A6842F400721A601A6842F480621A6018
:1040F0001A6842F480721A60032000F02FF8002042
:10410000FDF7B0FDFDF732FB002008BD003C02408A
:10411000034A044B11681B780B441360704700BFBF
:104120006C18002078000020014B1868704700BF11
:104130006C18002038B50446FFF7F6FF631C1CBF5F
:10414000054B1B78054618BFE418FFF7EDFF431B2E
:10415000A342FAD338BD00BF780000200749CA68DF
:1041600022F4E0620302120403F4E063120C13432E
:1041700043F0BF6343F40033CB60704700ED00E0D1
:10418000164B30B5DC68C4F30224C4F10705231DC7
:10419000042D28BF0425062B4FF0FF338CBF033CB2
:1041A000002403FA05F521EA0501A34022EA0302EF
:1041B000A140002841EA0203ACBF00F16040084A78
:1041C0004FEA0313B8BF00F00F00DBB2AABF00F53F
:1041D0006140135480F8003330BD00BF00ED00E0B3
:1041E00014ED00E0002808DB4209012300F01F0065
:1041F00003FA00F0014B43F82200704700E100E0B1
:1042000010B5044650B1437903F0FF0213B90271AF
:10421000FDF7CCFA01236371002010BD0120FCE7FB
:1042200010B5044630B390F8393003F0FF021BB9E3
:1042300080F83820FDF7D2FA22686168022384F8FA
:104240003930136823F440330B431360536BA16878
:1042500023F007030B435363136CE16823F47F538C
:1042600023F03F030B43136400200123E06384F831
:10427000393010BD0120FCE770477047036870B506
:104280005E681D68F207044614D5E90512D51A6860
:1042900022F480721A60C26B42F00102C2630122F2
:1042A0009A60042380F83930002380F8383043695D
:1042B00003B19847B20616D5AB0414D523681A6823
:1042C00022F400521A6020229A60E36B43F002034A
:1042D000E363042384F83930002384F838306369B9
:1042E0000BB120469847300716D5290514D5236809
:1042F0001A6822F400621A6008229A60E36B43F0A5
:104300000403E363042384F83930002384F838304D
:1043100063690BB12046984772070BD56B0509D529
:1043200023681A6822F480621A6004229A60204688
:10433000FFF7A2FFB00714D5A90512D523681A68A4
:1043400022F400721A6002229A60E36BE363012395
:1043500084F83930002384F8383023690BB12046C3
:104360009847F20613D5EB0411D523681A6822F496
:1043700080521A6010229A60E36BE363012384F891
:104380003930002384F838302046FFF776FF70BDBF
:10439000F0B590F83830012B4FF002032BD00122FA
:1043A00080F8393080F8382000EB0113D3E9074258
:1043B0005D6A184F44EA0242093C012C9CBF05F09B
:1043C0007F431A434FEA0116036888BF42EA056239
:1043D00099B9596A39400A435A62012C82699A6133
:1043E00003D8426A22F07F429A62012380F8393072
:1043F000002380F838301846F0BDD96939400A43A7
:10440000DA618219012C92691A619CBF25F07F45FF
:104410001D62EAE7F0FFFC002DE9F74FDFF8C091DD
:104420006D4A00230D6801249C4004EA050CAC434E
:1044300040F0B9804D6805F003044FEA43080326B5
:10444000671E06FA08F6012F6FEA060634D8876859
:1044500007EA060ECF6807FA08F747EA0E078760F3
:10446000476827EA0C0EC5F300179F4047EA0E077E
:104470004760C76807EA060E8F6807FA08F747EA39
:104480000E07022CC76019D14FEAD30A00EB8A0A43
:1044900003F0070BDAF820704FEA8B0B4FF00F0E8A
:1044A0000EFA0BFE27EA0E0E0F6907FA0BF747EA22
:1044B0000E07CAF8207001E0032CDAD1076804FA6D
:1044C00008F43E40264315F4403F06606BD04FF0A1
:1044D000000ACDF804A0D9F84460404C46F4804668
:1044E000C9F84460D9F8446006F480460196019EFC
:1044F00023F0030606F1804606F59C3603F0030E12
:10450000D6F808804FEA8E0E0F2707FA0EF7A04262
:1045100028EA07074ED004F58064A0424CD004F589
:104520008064A0424AD004F58064A04248D004F5DB
:104530008064A04246D004F58064A04244D004F5D3
:104540008064A04242D004F58064A04240D004F5CB
:104550008064A0423ED004F58064A0420CBF0924D0
:104560000A2404FA0EF43C43B46094686FEA0C0623
:10457000EF0254BF34404CEA04049460D468AF02A4
:1045800054BF34404CEA0404D4605468AF0354BFB1
:1045900034404CEA040454601468ED0354BF3440C2
:1045A0004CEA040414600133102B7FF43BAF03B0DA
:1045B000BDE8F08F5446D4E70124D2E70224D0E7C7
:1045C0000324CEE70424CCE70524CAE70624C8E781
:1045D0000724C6E70824C4E7003C0140000002406D
:1045E000003802400AB1816170470904FBE700000E
:1045F000044A5169014208B502D05061FDF79EFBA3
:1046000008BD00BF003C014001684B6913F48063A2
:104610004FF0000210D06FF480634B6120230263DF
:1046200080F83D3080F83E20036C80F83C2043F059
:104630000403036401207047184670472DE9F846CB
:1046400006460F4691461D464FEA114A3368BAF1B5
:10465000010F0CBF5C699C6927EA0404A4B2B4FA98
:1046600084F46409A14501D0002017E06A1CEED053
:10467000FFF75AFD089BC01AA84201D8002DE5D1CA
:1046800000232022336386F83D2086F83E30326CCA
:1046900086F83C3042F0200232640120BDE8F88602
:1046A0002DE9F04104460F4616469846256868698C
:1046B00027EA000080B2B8B16B695A0516D52B689D
:1046C00043F400732B606FF480636B61202200233E
:1046D000236384F83D2084F83E30226C42F00402CB
:1046E000226484F83C300120BDE8F081731CDED0E8
:1046F000FFF71AFDA0EB0800B04201D8002ED5D17B
:1047000000232022236384F83D2084F83E30226C6D
:1047100042F02002E4E770B504460D4616462168D3
:104720004B6913F0400301D0002010E04A69D20623
:104730000ED56FF010024A612022236384F83D20D9
:1047400084F83E30226C226484F83C30012070BD35
:10475000FFF7EAFC801BA84201D8002DDFD100231F
:104760002022236384F83D2084F83E30226C42F0FE
:104770002002E8E770B504460D46164623685B69DB
:104780005B0701D5002070BD2046FFF73DFFA8B9AB
:104790006A1CF3D0FFF7C8FC801BA84201D8002D8B
:1047A000ECD100232022236384F83D2084F83E309E
:1047B000226C84F83C3042F0200222640120E2E7BF
:1047C00070B504460D46164623685B691B0601D585
:1047D000002070BD2046FFF717FFA8B96A1CF3D070
:1047E000FFF7A2FC801BA84201D8002DECD10023CA
:1047F0002022236384F83D2084F83E30226C84F824
:104800003C3042F0200222640120E2E72DE9F0432F
:104810001546026885B0DDE90C789946136843F4C3
:10482000807313600E463B46CDF8008000224FF0A7
:1048300001110446FFF702FF236838B11B68DB054E
:1048400002D54FF40073236403200AE006F0FE064D
:104850001E61194943463A462046FFF721FF18B129
:10486000012005B0BDE8F083236803905A690392E4
:104870009B690393424639462046039BFFF7A0FFFE
:1048800040B1236C042B01BF2268136843F400730A
:104890001360E5E7B9F1010F236802D1EDB21D61A4
:1048A000DFE72A0A1A61394642462046FFF788FFA9
:1048B0000028E6D12368F1E7020001002DE9FF4757
:1048C0009A46036815461A6842F480621A601A68AC
:1048D000DDE90C7842F480721A600E463B46CDF852
:1048E000008000224FF001110446FFF7A7FE236865
:1048F00048B11B68DB0502D54FF400732364032025
:1049000004B0BDE8F0875FFA86F906F0FE061E6186
:104910002A4943463A462046FFF7C2FE08B1012025
:10492000EEE7236803905A6903929B69039342461A
:1049300039462046039BFFF743FF40B1236C042B0D
:1049400001BF2268136843F400731360E7E7BAF10C
:10495000010F23681AD1EDB21D6142463946204647
:10496000FFF72EFF0028E9D12268136843F4807313
:1049700013604FF001110246CDF800803B462046FF
:10498000FFF75CFE226860B11368B3E72A0A1A6178
:10499000394642462046FFF713FF0028CED1236850
:1049A000D9E749F001031361044943463A462046DA
:1049B000FFF776FE003818BF0120A1E702000100D2
:1049C00070B5044608B9012070BD90F83D3003F081
:1049D000FF021BB980F83C20FCF722FF242384F857
:1049E0003D3023681A6822F001021A601A6842F406
:1049F00000421A601A6822F400421A6000F074FE45
:104A00003F4B65689D4294BF3E4B3F4B98428CBFE5
:104A100000230123002BD6D12268394E53683B492D
:104A2000B0FBF1F123F03F030B43B542536088BF65
:104A30004FF49676136A88BF714323F03F0384BF17
:104A40004FF47A76B1FBF6F1013119431162D16965
:104A5000431E2B4821F44F41854221F0FF0132D8FB
:104A60006D0040F6FC70B3FBF5F30133034242D016
:104A7000C3F30B030B43D361D4E90730116803433D
:104A800021F0C0010B4313609168D4E9030321F4C2
:104A90000341034321F0FF010B439360D4E9053048
:104AA000D168034321F0FF010B43D360136843F047
:104AB0000103136000202023206484F83D3020632C
:104AC00084F83E0080E7A06850B905EB4505B3FBCC
:104AD000F5F30133C3F30B037BB143F40043C9E7A0
:104AE00019204543B3FBF5F30133C3F30B0323B1A3
:104AF00043F44043BEE70423BCE70123BAE700BF09
:104B0000A08601007F841E00FF083D0040420F0088
:104B10002DE9F743044699460C9E0F469046FFF751
:104B200003FB94F83D30202B054603D0022003B050
:104B3000BDE8F08300903C49192301222046FFF78D
:104B40007DFD0028F2D194F83C30012BEED0206896
:104B5000012384F83C300368D9075EBF036843F043
:104B600001030360036823F400630360212384F8D6
:104B70003D30402384F83E30002323640A9B636267
:104B8000BDF82C306385638D2385284BE362CDE926
:104B900000654B46424639462046FFF737FE00285F
:104BA0002AD00120C3E7FFF70BFE40B1236C042B92
:104BB00001BF2268136843F400731360F1E7636A6E
:104BC00027681A4612F8011B39616262628D218DD5
:104BD000013A92B262857A69481E80B252072085F6
:104BE0000AD548B15A783A6102336362638D013B5A
:104BF00002399BB221856385238D2A4631462046A2
:104C0000002BD0D1FFF7B6FD0028CFD12268136862
:104C100043F400731360202384F83D3084F83C0093
:104C200084F83E0083E700BF020010000000FFFF91
:104C30002DE9F043044687B09946109F0D469046F3
:104C4000FFF772FA94F83D30202B064604D0022577
:104C5000284607B0BDE8F083009076491923012269
:104C60002046FFF7EBFC0028F1D194F83C30012BF3
:104C7000EDD02068012384F83C300368DB075EBF79
:104C8000036843F001030360036823F400630360D7
:104C9000222384F83D30402384F83E3000232364EF
:104CA0000E9B6362BDF83C306385638D2385624B48
:104CB000E3622946CDE900764B4642462046FFF79F
:104CC000FDFD054608B10125C2E7228D2368B2B972
:104CD00002905A6902929A690292029A1A6842F400
:104CE00000721A60DFF85481238D002B2CD1202212
:104CF00084F83D2084F83C3084F83E30A8E7012A4F
:104D00000AD11A6822F480621A6003905A690392E9
:104D10009A690392039AE1E7022A0ED11A6822F4F3
:104D200080621A601A6842F400621A6004905A693C
:104D300004929B690493049BD4E705905A690592F9
:104D40009B690593059BCDE7032B56D8012B15D105
:104D5000324639462046FFF7DEFC0028B3D12368EF
:104D60001A69636A1A70636A01336362238D013BB7
:104D70002385638D013B9BB26385B5E7022B0096CB
:104D80003B464FF000024146204619D1FFF756FC42
:104D9000002898D123681A6842F400721A601A69D0
:104DA000636A1A70626A531C6362238D013B238518
:104DB000638D013B9BB2638523681B695370D2E707
:104DC000FFF73CFC00287FF47EAF23681A6822F4CA
:104DD00080621A601A69636A1A70636A0096013306
:104DE0006362238D013B2385638D013B9BB2638509
:104DF00002463B4641462046C8E7324639462046F1
:104E0000FFF789FC00287FF45EAF23681A69636AA4
:104E10001A70626A531C6362238D013B2385638D84
:104E2000013B9BB263852368596949077FF55CAFF5
:104E3000C3E700BF020010000000FFFF04000100F4
:104E400010B590F83D30202BDCB216D1242380F829
:104E50003D3003681A6822F001021A605A6A22F093
:104E600010025A625A6A114359621A6842F00102EA
:104E70001A6080F83D40002010BD0220FCE730B5EC
:104E800090F83D30202BDCB216D10268242380F844
:104E90003D30136823F001031360556A4FF6F07339
:104EA0002B400B439BB25362136843F00103136022
:104EB00080F83D40002030BD0220FCE70068D1F8BA
:104EC00000C0D201843283182DE9F043C6685D68C2
:104ED0004C68D1F8189005F470455D60C5680CF118
:104EE0000107C5F30B45C6F30B463D44264445EA8E
:104EF00006455D60C568CE68C5F30A052E449D6809
:104F000005F470459D60C7688D68C7F30A070135D1
:104F10003D4445EA06459D601D690E6925F007057B
:104F20001D614FF0000E1E619D6991F8327091F87D
:104F30003180C3F818E091F8305045EA096545EA38
:104F4000082545EA07459D615D6925F0FF055D611E
:104F50004D695D61DD6925F4E06525F00705DD61DA
:104F6000D1E907573D43DD619D6A4D6AC3F828E0EA
:104F70009D621EB3012E23D0B51E022D22D9072E0D
:104F80000CBF02250125DE6A06F0E026DE62A4EBF6
:104F90000C048E6AC96A6C436E43033444EA0644C7
:104FA000DC621C6B24F4FF6424F007041C631963A7
:104FB000835843F001038350BDE8F0830425E2E702
:104FC0000325E0E70225DEE738B50446002863D074
:104FD00090F8A13003F0FF021BB980F8A020FCF785
:104FE0007BFC022384F8A13023689A6922F0704286
:104FF0009A61D4E901200243E0689969024320697B
:1050000002430A439A619A68244960690A409A6097
:105010009A6842EA0042A06902439A60DA68E0694D
:105020000A40DA60DA6842EA0042206A0243DA6043
:105030001A69606A0A401A611A6942EA0042A06A63
:1050400002431A615A69114059615A69E16A42EA98
:105050000142216B0A435A61D96A94F8360094F8E8
:10506000355001F07F41D962D96A94F834200A435F
:1050700042EA052242EA0042DA625A6B42F0060234
:105080005A639A6942F001029A6100200123C4F830
:10509000A40084F8A13038BD0120FCE700F800F03E
:1050A00070477047036870B59E6B5D6B720704466E
:1050B00014D5690712D55A6B22F004025A630422F0
:1050C000DA63D0F8A43043F00103C0F8A430002321
:1050D00080F8A12080F8A030FFF7E2FFB20716D5D4
:1050E000AB0714D523685A6B22F002025A630222DE
:1050F000DA63D4F8A4301343C4F8A430042384F84A
:10510000A130002384F8A0302046FFF7C9FFF00744
:1051100010D5E9070ED523685A6B22F001025A63B5
:105120000122DA63002384F8A12084F8A03020460D
:10513000FBF7B8FF320711D52B070FD523685A6B41
:1051400022F008025A630822DA63012384F8A130AE
:10515000002384F8A0302046FFF7A3FF70BD2DE99F
:10516000F04190F8A030012B06460F4694464FF0D0
:1051700002001FD04FF0010886F8A08086F8A10039
:1051800034240D4604FB02640FCD38340FC40FCD18
:105190000FC40FCD0FC42B682360304662463946DA
:1051A000FFF78CFE33680020C3F8248086F8A180C6
:1051B00086F8A000BDE8F08190F8A030012B4FF0F8
:1051C000020312D080F8A13003685A6B22F001026A
:1051D0005A63074A11645A6B42F001025A63012371
:1051E00080F8A130002380F8A0301846704700BF37
:1051F000006801402DE9F341044640B30368DD0730
:1052000010D4236898075ED423681A0700F1A080A1
:1052100023685B0700F1C080A069002840F0288166
:1052200000202BE08F4B9A6802F00C02042A07D072
:105230009A6802F00C02082A0BD15A68510208D56C
:10524000884B1B689A03DCD56368002BD9D10120F9
:1052500014E06268B2F5803F13D11A6842F48032DC
:105260001A60FEF761FF7F4E054633689B03C8D482
:10527000FEF75AFF401B6428F7D9032002B0BDE8AF
:10528000F081784DB2F5A02F2B6807D143F480232D
:105290002B602B6843F480332B60E2E723F48033E8
:1052A0002B602B6823F480232B60002AD9D1FEF7D2
:1052B0003BFF06462B689F03A3D5FEF735FF801BF7
:1052C0006428F7D9D9E7674B9A6812F00C0F07D01A
:1052D0009A6802F00C02082A11D15B685E020ED4B3
:1052E000604A13689D0702D5E368012BAFD11368AC
:1052F000216923F0F80343EAC103136084E7E268FD
:10530000594BB2B101221A60FEF70EFF554D064609
:105310002B68980707D52B68226923F0F80343EA26
:10532000C2032B6070E7FEF7FFFE801B0228EFD957
:10533000A3E71A60FEF7F8FE4A4E05463368990760
:105340007FF562AFFEF7F0FE401B0228F6D994E726
:105350006269454B82B10122C3F8802EFEF7E4FE5C
:10536000404E0546736F9F073FF552AFFEF7DCFED8
:10537000401B0228F6D980E7C3F8802EFEF7D4FE42
:10538000384E0546736F98077FF542AFFEF7CCFEA7
:10539000401B0228F6D970E7324B1A6C12F080528B
:1053A00028D101921A6C42F080521A641B6C03F0EF
:1053B00080530193019B01272C4D2B68D9051BD5E8
:1053C000A368284D012B27D12B6F43F001032B67D6
:1053D000FEF7AAFE234E054641F28838336F9B073D
:1053E00039D5002F3FF418AF1E4A136C23F08053B9
:1053F000136411E70027DFE72B6843F480732B6009
:10540000FEF792FE06462B68DA05D9D4FEF78CFE2D
:10541000801B0228F7D930E7052B04D12B6F43F00E
:1054200004032B67D0E72A6F22F001022A672A6F54
:1054300022F004022A67002BCAD1FEF775FE41F262
:10544000883806462B6F9807CBD5FEF76DFE801B7C
:105450004045F7D911E7FEF767FE401B4045BDD92F
:105460000BE700BF003802400000474200700040D8
:10547000364DAB6803F00C03082B3DD0344B0022B3
:1054800002281A662BD1FEF74FFE06462B689901BB
:105490001FD4D4E907321343626A43EA8213E26AF3
:1054A00043EA0263A26A5208013A43EA02436B608C
:1054B000274B264D01221A66FEF736FE04462B685E
:1054C0009A013FF5ADAEFEF72FFE001B0228F6D97C
:1054D000D3E6FEF729FE801B0228D7D9CDE6FEF7DA
:1054E00023FE04462B689B017FF59AAEFEF71CFE57
:1054F000001B0228F6D9C0E601283FF4BFAE6B6856
:10550000E26903F4800191427FF4A1AE216A03F0C5
:105510003F028A427FF49BAE616A47F6C0721A402E
:10552000B2EB811F7FF493AEA26A520803F44031BC
:10553000013AB1EB024F7FF48AAEE26A03F0706386
:10554000B3EB026F3FF46CAE81E600BF003802405F
:1055500000004742134908B58B6803F00C03042B85
:105560001CD0082B1CD14A684B68496813F480038F
:1055700014BF0D480D48C1F3881118BF002302F075
:105580003F02A1FB0001FAF783FE064B5B68C3F301
:10559000014301335B00B0FBF3F008BD0248FCE7B8
:1055A0000248FAE70038024000127A000024F400B2
:1055B0002DE9F0410D46044610B90120BDE8F08107
:1055C000444B1A6802F00F028A4228D322689707D8
:1055D0002DD4D00741D43F4B1A6802F00F02AA42E3
:1055E00066D8226851076CD4130707D53A4A216957
:1055F000936823F4604343EAC1039360FFF7AAFF73
:10560000354B364A9B68C3F30313D35CD840344B05
:105610001860344B1868FCF725FB0020CEE7CAB2AF
:105620001A701B6803F00F038B42C6D1CEE72A4BDA
:1056300012F0040F1EBF996841F4E05199601607FB
:1056400042BF996841F4604199602349A0688B6822
:1056500023F0F00303438B60BBE762681E4B012A13
:105660001CD11B6813F4003FA7D01B4EB36823F076
:1056700003031343B360FEF757FD41F28838074632
:10568000B368626803F00C03B3EB820FA3D0FEF79C
:105690004BFDC01B4045F3D903208FE7911E012924
:1056A0001B6802D813F0007FDEE713F0020FDBE780
:1056B000EAB21A701B6803F00F03AB427FF47DAFB0
:1056C0008FE70549E0688B6823F4E05303438B6060
:1056D0008AE700BF003C02400038024004C60108CF
:1056E000740000207C000020044B054A9B68C3F333
:1056F0008223D35C034A1068D840704700380240C8
:1057000014C60108740000200F2303600B4B9A6835
:1057100002F0030242609A6802F0F00282609A6826
:1057200002F4E052C2609B68DB0803F4E0530361BB
:10573000034B1B6803F00F030B60704700380240F7
:10574000003C0240036813F0430FF7B5044640F0F5
:105750008C80236813F00C0F45D08B4B8B4D0022AF
:105760001A67FEF7E1FC06462B689F0000F1CF8028
:1057700021684E0715D5D4E90403D5F888201B0607
:1057800002F0E04243EA80131343C5F88830D5F8AD
:105790008C30226A23F4F853013A43EA0223C5F815
:1057A0008C300D0714D5794AA369D2F88810206986
:1057B0001B0701F0706143EA80130B43C2F8883085
:1057C000D2F88C30616A23F440330B43C2F88C303A
:1057D0006D4B6E4E01221A67FEF7A6FC0546336834
:1057E000980040F19B8023689B0633D500230193EA
:1057F000664B674D1A6C42F080521A641B6C03F0C2
:1058000080530193019B2B6843F480732B60FEF758
:105810008BFC06462B68D90540F187805B4D2B6FCA
:1058200013F4407340F08880A36A03F44072B2F529
:10583000407F564A40F0A480916823F0704021F4E4
:10584000F81120F4407001439160116FC3F30B0312
:105850000B431367206810F010001FBF4D4B94F8E6
:105860002C20C3F8E02100204FE0474B474E002298
:105870009A66FEF759FC054633681F013FD421683C
:10588000CD0741BFD4E901231B0743EA8213C6F8C1
:105890008430880715D53D4AE368D2F884006568EE
:1058A0001B0600F0E04043EA85130343C2F884304E
:1058B000D2F88C00E36920F01F00013B0343C2F8DB
:1058C0008C3049060AD5E36862681B0643EA8213F6
:1058D000A26843EA02732D4AC2F884302A4B2B4E49
:1058E00001229A66FEF720FC054633681A013FF54F
:1058F00030AFFEF719FC401B0228F6D904E0FEF792
:1059000013FC401B0228B7D9032003B0F0BDFEF7FB
:105910000BFC801B02287FF627AFF5E7FEF704FC9F
:10592000401B02287FF65BAFEEE7FEF7FDFB801B16
:1059300002287FF66FAFE7E7A26A02F44072934253
:105940003FF472AF2B6F104A0121C2F8401E23F4BE
:1059500040730021C2F8401E2B672B6FDA077FF5DA
:1059600063AFFEF7E1FB41F2883706462B6F9B07DA
:105970003FF55AAFFEF7D8FB801BB842F6D9C3E714
:10598000916821F4F8115FE70000474200380240B7
:10599000007000400010474238B50D460446C8B1BB
:1059A00090F82C3003F0FF021BB980F82D20FCF793
:1059B000EDF8022384F82C30211D206800F0F4FD5E
:1059C00062682068294600F02AFE012384F82C3002
:1059D000002038BD0120FCE770B590F82C30022B78
:1059E00005460E46D8B212D000F0FB04012C0FD1B0
:1059F000022385F82C30286800F047FE3368022B1C
:105A000006BF052385F82C3085F82C40002070BD9A
:105A10000120FCE738B590F82C30022B0446D8B2B0
:105A20000DD094F82C30012BDDB209D1022320686F
:105A300084F82C3000F04FFE84F82C50002038BD44
:105A40000120FCE72DE9F3411D461746884606462E
:105A5000FEF76AFB3D442C1AFEF766FB224B1B68DF
:105A6000C3F3CB330546634332680193936838EA46
:105A7000030301D000202DE07B1CF7D0FEF754FB80
:105A8000401BA04229D333685A6822F0E0025A60D2
:105A90007268B2F5827F0AD1B268B2F5004F02D0C7
:105AA000B2F5806F03D11A6822F040021A60B26A20
:105AB000B2F5005F07D11A6822F400521A601A6822
:105AC00042F400521A60012386F85130002386F810
:105AD0005030032002B0BDE8F081019B002B019BF8
